:020000040800F2
:100000000000032091050008850C0008870C0008FB
:10001000890C00088B0C00088D0C00080000000003
:10002000000000000000000000000000A17C0008AB
:100030008F0C000800000000417D0008A57D00082D
:10004000E1050008E1050008E1050008E1050008F8
:10005000E1050008E1050008E1050008E1050008E8
:10006000E1050008E1050008E1050008E1050008D8
:10007000E1050008E1050008E1050008E1050008C8
:10008000E1050008E1050008E1050008E1050008B8
:10009000E1050008E1050008E1050008E1050008A8
:1000A000E1050008E1050008E1050008E105000898
:1000B000E1050008E1050008E1050008E105000888
:1000C000E1050008E1050008E1050008E105000878
:1000D000E1050008E1050008E1050008E105000868
:1000E000E1050008E1050008E1050008E105000858
:1000F000E1050008E1050008E1050008E105000848
:10010000E1050008E1050008E1050008E105000837
:10011000E1050008E1050008910C0008E105000870
:10012000E1050008E1050008E1050008E105000817
:10013000E1050008E1050008E1050008E105000807
:10014000E1050008E1050008E1050008E1050008F7
:10015000E1050008E1050008E1050008E1050008E7
:10016000E1050008E1050008E1050008E1050008D7
:10017000E1050008A10C0008E105000800000000EE
:10018000E1050008E1050008E1050008E1050008B7
:10019000E1050008E1050008E1050008E1050008A7
:0C01A000B10C0008E1050008C10C0008CB
:1001B00010B5054C237833B9044B13B10448AFF3A1
:1001C00000800123237010BD2801002000000000E2
:1001D0006817010808B5034B1BB103490348AFF387
:1001E000008008BD000000002C01002068170108F5
:1001F00053B94AB9002908BF00281CBF4FF0FF318E
:100200004FF0FF3000F072B9ADF1080C6DE904CE8B
:1002100000F006F8DDF804E0DDE9022304B07047E1
:100220002DE9F047089E04468846002B4BD18A42B0
:10023000154667D9B2FA82F24AB1C2F1200701FA33
:1002400002F320FA07F7954047EA030894404FEA83
:10025000154E230CB8FBFEF71FFA85FC0EFB178822
:1002600043EA084307FB0CF1994209D9EB1807F15F
:10027000FF3080F01B81994240F21881023F2B44ED
:100280005B1AA4B2B3FBFEF00EFB103344EA034446
:1002900000FB0CFCA44509D92C1900F1FF3380F0B8
:1002A0000781A44540F2048102382C4440EA07400B
:1002B000A4EB0C0400271EB1D4400023C6E9004380
:1002C0003946BDE8F0878B4209D9002E00F0EB805B
:1002D0000027C6E9000138463946BDE8F087B3FA81
:1002E00083F7002F47D18B4202D3824200F2FA807B
:1002F000841A61EB030301209846002EE0D0C6E982
:100300000048DDE702B9FFDEB2FA82F2002A40F0CF
:100310008F80491B4FEA154E1FFA85F80127B1FB64
:10032000FEFC230C0EFB1C1143EA014308FB0CF1FD
:10033000994207D9EB180CF1FF3002D2994200F232
:10034000CD808446591AA3B2B1FBFEF00EFB101407
:1003500043EA044408FB00F8A04507D92C1900F132
:10036000FF3302D2A04500F2B6801846A4EB080481
:1003700040EA0C409FE7C7F1200CBB4022FA0CFE7C
:100380004EEA030E01FA07F420FA0CF521FA0CF3F9
:100390004FEA1E482543B3FBF8F92C0C08FB193330
:1003A0001FFA8EFA44EA034309FB0AF49C4202FA5C
:1003B00007F200FA07F10BD91EEB030309F1FF3036
:1003C00080F087809C4240F28480A9F10209734446
:1003D0001B1BADB2B3FBF8F008FB103345EA034436
:1003E00000FB0AFAA24508D91EEB040400F1FF3312
:1003F0006BD2A24569D90238744440EA0940A0FB97
:100400000289A4EB0A044C45C2464B4654D351D052
:10041000002E69D0B1EB0A0564EB030404FA0CFC6E
:10042000FD40FC404CEA0505C6E90054002747E7BB
:10043000C2F1200320FA03F7954001FA02F021FAF5
:1004400003F34FEA154E3843010CB3FBFEF71FFAD6
:1004500085F80EFB173341EA034107FB08F38B4293
:1004600004FA02F407D9691807F1FF3C2FD28B4236
:100470002DD9023F2944CB1A81B2B3FBFEF00EFB0B
:10048000103341EA034100FB08F38B4207D9691896
:1004900000F1FF3C17D28B4215D902382944C91A02
:1004A00040EA07473BE73746304609E70746E7E6B5
:1004B0001846FBE64145ABD2B8EB020A69EB0E02E7
:1004C00001381346A4E76046E9E7184695E7674612
:1004D000D1E781467CE702382C4447E7ACF1020CB7
:1004E0002B442FE7384608E73746E9E6704700BF58
:1004F00001F0FF01102A2BDB10F0070F08D010F8D5
:10050000013B013A8B422DD010F0070F42B3F6D1D8
:10051000F0B441EA012141EA014122F007047FF0F1
:1005200000070023F0E80256083C85EA010586EA48
:10053000010685FA47F5A3FA87F586FA47F6A5FA84
:1005400087F68EB9EED1F0BC01F0FF0102F0070290
:1005500032B110F8013B013A83EA010313B1F8D13B
:100560000020704701387047002D06BF354603381C
:10057000073815F0010F07D1013015F4807F02BF55
:10058000013015F4C03F0130F0BC0138704700BFA6
:10059000DFF834D0002103E00C4B5B5843500431AA
:1005A0000B480C4B42189A42F6D30B4A02E0002348
:1005B00042F8043B094B9A42F9D303F0F5F810F0E6
:1005C0007BF900F0DDF97047000003209C6A020807
:1005D000000000202801002028010020809B00202E
:1005E000FEE70120704708B510F04EF916230360AE
:1005F0004FF0FF3008BD08B54FF0FF31FFF7F3FFB4
:10060000FEE770B50D461646002404E0AFF3008007
:10061000287001340135B442F8DB304670BD70B546
:100620001646002405E04D1C0878AFF30080013425
:100630002946B442F7DB304670BD000008B50346DA
:100640000B4A126842B10A4A106803446A46934250
:1006500006D8074A136008BD054A06491160F2E74B
:1006600010F012F90C2303604FF0FF30F3E700BFE6
:1006700044010020809B00204FF0FF3070474FF472
:1006800000534B60002070470120704700207047E6
:100690002DE9F0478EB0002409940A940B940C9431
:1006A0000D940194644B1A6B42F004021A631A6BA6
:1006B00002F004020192019A02941A6B42F02002A5
:1006C0001A631A6B02F020020292029A03941A6BC8
:1006D00042F080021A631A6B02F080020392039ABE
:1006E00004941A6B42F001021A631A6B02F00102C1
:1006F0000492049A05941A6B42F002021A631A6B70
:1007000002F002020592059A06941A6B42F040022A
:100710001A631A6B02F040020692069A07941A6B4B
:1007200042F010021A631A6B02F010020792079A45
:1007300008941A6B42F008021A631B6B03F008035B
:100740000893089BDFF8008122461621404603F0FB
:10075000EFFC3A4E22468021304603F0E9FC384F48
:1007600022464FF44051384603F0E2FCDFF8DC90BB
:1007700022464FF4C041484603F0DAFC16230993A1
:1007800001250A950B940C9409A9404603F042FBFD
:1007900048F207030993DFF8B8A0CDF828A00B941E
:1007A00009A9304603F036FB802309930A950B9480
:1007B0000C9409A9304603F02DFB20230993CDF8B2
:1007C00028A00B9409A9404603F024FB04230993B5
:1007D0000A940B9409A91B4803F01CFB4FF4006317
:1007E00009930A940B9409A9384603F013FB4FF4BC
:1007F000405309930A950B940C9409A9384603F0C9
:1008000009FB4FF4C063099302230A930B9403235B
:100810000C9307230D9309A9304603F0FBFA4FF41C
:10082000C04309930A950B940C9409A9484603F018
:10083000F1FA0EB0BDE8F087003802400000024037
:10084000000C024000040240000802400018024070
:100850000000121008B50348034B036003F068F86A
:1008600008BD00BF4C0100200030024038B50E4CDE
:100870000E4BA3600E4BE3600025256165614FF4CC
:100880008043A361E56125626562A5620834204664
:1008900004F0FCFB2946204604F0D5FE29462046FC
:1008A00004F0F3FE38BD00BF4C010020005C0040A6
:1008B000A086010008B502F02BFA00F089FF0120A4
:1008C00006F0BBFFFBE7000070B5A0B030252A465C
:1008D000002114A810F02FF800240F941094119404
:1008E000129413942A46214603A810F024F8019488
:1008F000214B1A6C42F080521A641B6C03F0805337
:100900000193019B02941D4A136823F4404343F46E
:1009100080431360136803F440430293029B012356
:1009200014934FF48036159602251A954FF48003E0
:100930001B9304231C9348231D931E9503231F938D
:1009400014A805F027F90F230F93109511944FF475
:1009500080531293139429460FA805F053FB0823E4
:1009600003933C230793052309930C9603A805F0F2
:1009700029FC20B070BD00BF00380240007000406C
:1009800000B587B002F036FFFFF79EFFFFF780FE4D
:10099000FFF760FFFFF76AFF00F010FF01F062F859
:1009A00001AC074D0FCD0FC42B682360002101A8B7
:1009B00006F029FF034BD86506F020FFFEE700BFD5
:1009C000801701084C01002008B50268034B9A42C9
:1009D00000D008BD02F028FFFBE700BF0010004078
:1009E0007047000000B583B0002200920D4B596C97
:1009F00041F480415964596C01F48041009100999F
:100A00000192196C41F0805119641B6C03F0805302
:100A10000193019B0F216FF0010002F03DFF03B035
:100A20005DF804FB003802400268094B9A4200D08E
:100A3000704782B000230193064B1A6B42F4805238
:100A40001A631B6B03F480530193019B02B0704740
:100A500000300240003802402DE9F04188B0002308
:100A6000039304930593069307930268204B9A42DD
:100A700002D008B0BDE8F081002500951D4C236B25
:100A800043F004032363236B03F004030093009BF0
:100A90000195236B43F001032363236B03F00103F0
:100AA0000193019B4FF4007303934FF01208CDF8AC
:100AB0001080012705970426079603A90E4803F026
:100AC000A9F94FF480730393CDF81080059706952C
:100AD000079603A9094803F09DF90295236C43F496
:100AE00000032364236C03F400030293029BC0E71A
:100AF000005C004000380240000802400000024054
:100B000008B50268094B9A4200D008BD084A136C28
:100B100023F4000313644FF40071064803F06AFAEB
:100B20004FF48071044803F065FAEEE7005C004082
:100B300000380240000802400000024000B589B0C1
:100B40000023039304930593069307930268144BC1
:100B50009A4202D009B05DF804FB0021019103F52F
:100B600068435A6C42F480125A645A6C02F4801240
:100B70000192019A02911A6B42F020021A631B6BD8
:100B800003F020030293029B4FF46073039302234C
:100B900004930523079303A9024803F03BF9D9E71F
:100BA000005001400014024008B50268074B9A4209
:100BB00000D008BD064A536C23F4801353644FF4ED
:100BC0006071044803F016FAF3E700BF00500140DB
:100BD00000380240001402400268094B9A4200D0DB
:100BE000704782B000230193064B5A6C42F0010219
:100BF0005A645B6C03F001030193019B02B07047E0
:100C0000000001400038024010B588B000220146C3
:100C1000362002F041FE362002F072FE00240194DC
:100C2000144B1A6C42F010021A641B6C03F0100390
:100C30000193019B02A903A805F0A6FA05F094FA16
:100C400043000D48A0FB03239B0C013B0B480C4ABF
:100C5000026040F2E732C26043600461846005F0E4
:100C6000B9FF10B1012008B010BD044805F001FE25
:100C7000F9E700BF0038024083DE1B438094002068
:100C8000001000407047FEE7FEE7FEE7FEE7704712
:100C900008B5024805F081FE08BD00BF8094002021
:100CA00008B5024803F0EEFE08BD00BFE098002042
:100CB00008B5024804F05CFE08BD00BF500D0020DE
:100CC00008B5024802F0A4FF08BD00BF3C0E00209A
:100CD000704708B5012907D019B1022907D00020B3
:100CE00001E000F04BF808BD00F08CF8FBE700F0E5
:100CF00009F8F8E710B5044604210FF08DFD2046F1
:100D000010BD7047164B1B78BFF35B8F13F0010FBC
:100D100001D01448704730B589B011480FF053FD29
:100D200010B9104809B030BD0D4D2C1D002207929E
:100D300006920D4B05930D4B0493039202920423EC
:100D4000019300920A230A4920460DF021F8284613
:100D50000FF045FD074A084920460FF058FDE0E72F
:100D60000402002008020020303A0108783501080A
:100D70004C3A010800000020030D0008194B93F8BD
:100D80002430BFF35B8F13F0010F01D0164870477A
:100D900030B589B015480FF016FD10B9124809B0EA
:100DA00030BD104D05F12804002307930693104A27
:100DB0000592104A049201220392029304220192A6
:100DC0000093142310220C4920460CF0E1FF05F19A
:100DD00024000FF004FD094A094920460FF017FDD1
:100DE000DCE700BF040200202C02002028020020C3
:100DF000343A01087C3501085C3A01080000002003
:100E0000030D0008184B93F84830BFF35B8F13F0C5
:100E1000010F01D01548704730B589B014480FF064
:100E2000D2FC10B9114809B030BD0F4D05F14C048A
:100E30000022079206920F4B05930F4B04930392E7
:100E4000029204230193009228230C4920460CF0BF
:100E50009FFF05F148000FF0C2FC094A09492046EE
:100E60000FF0D5FCDEE700BF040200205002002096
:100E70004C020020483A01082C3A01083C3B01088A
:100E800000000020030D000810B5044620210FF0DB
:100E9000C3FC204610BD70477047416070477047E3
:100EA000D0F8343183B110B504461A68D2681846B8
:100EB000904700B910BDD4F8340103689B68984787
:100EC0000023C4F83431F5E77047704770470123B9
:100ED00003727047704710B503464468C2685110EA
:100EE000601812F0010F04D062589B68D3589847DD
:100EF00010BD9B68FBE743684BB183680BB10120D1
:100F00007047C36813F0010F03D001207047002021
:100F100070470020704710B504460C210FF07CFC90
:100F2000204610BD10B504464FF4A8710FF074FCB4
:100F3000204610BD10B5044610210FF06DFC204670
:100F400010BD000070B504460D4616460BF024FF98
:100F50000020C4F83001C4F834010A4B1C600A4B6D
:100F600023600A4BC4F83831C4F83C01C4F840018E
:100F7000C4F84401C4F84861C4F84C5100F046FA82
:100F8000204670BD38940020F81B0108E01B0108C2
:100F900010B489B003460D4A0692002207926C46AF
:100FA00008AA12E9030084E8030004AA82E8030007
:100FB000C3F83C3103F5A07484E8030003F59C7288
:100FC000C3F8342109B05DF8044B70471D110008C7
:100FD0002DE9F0470746884614469946DDF820A0DB
:100FE000906803681B6A9847B0F59E7F75D3606868
:100FF00003681B6A98470F2875D9E06803681B6A65
:1010000098470B2875D90BF0A7FE0BF0ABFED9F86B
:10101000000010B10368DB689847D9F8000010B1F0
:1010200003681B689847386810B103685B69984784
:10103000D8F8000010B103685B689847386810B1B1
:1010400003681B689847D8F8000010B103689B68D4
:101050009847E06803685B6A00219847054620B11D
:10106000002343600372274B0360A06803685B6A38
:1010700000219847064608B100F05CFA60680368F2
:101080005B6A00219847044610B1314600F040FAEF
:10109000C9F80050C8F800403E60002C2FD0231D36
:1010A000CAF80030C4F808A0F4633368DB6830463F
:1010B000984723681B6820469847294630460CF01D
:1010C00045FE2B681B69284698470BF045FE0368D0
:1010D0009B6A98472046BDE8F0870B4B0B4AC2211C
:1010E0000B480FF0A5FB0B4B084AC32108480FF033
:1010F0009FFB094B054AC42105480FF099FB0023CB
:10110000CEE700BF341C01084C1C0108A8170108D9
:10111000DC1C01086C1D0108101E010800B583B01D
:10112000D0F84C310093054BD0F8482100F5987168
:101130000348FFF74DFF03B05DF804FB3494002033
:101140003094002070477047704770477047000028
:101150002DE9F04F85B004460CF07AFC0025E563DC
:101160008E4B2360A4F84450A4F84650A4F848508D
:10117000A4F84A50A4F84C50A4F84E50A4F850508B
:10118000A4F852506565A565E56584F864500127AB
:1011900084F86570824B2364FF2184F86610A5668D
:1011A00084F86C5004F1700AA4F87450A4F87650D6
:1011B000A4F87850A4F87A50A4F87C50A4F87E5093
:1011C000A4F88050A4F88250C4F88450C4F8885021
:1011D000C4F88C5084F8945084F89570714A226752
:1011E0004FF6FF73A4F89630C4F89850A4F89C50BA
:1011F00084F89E1084F89F5084F8A05084F8A15081
:1012000004F1A409A4F8A850A4F8AA50A4F8AC507A
:10121000A4F8AE50A4F8B050A4F8B250A4F8B4505A
:10122000A4F8B650C4F8B850C4F8BC50C4F8C050C4
:1012300084F8C85084F8C970C4F8A420A4F8CA304F
:10124000C4F8CC50A4F8D05084F8D23084F8D350ED
:1012500084F8D45084F8D55004F1D80630460AF00A
:1012600079F804F58278404609F0FAFF04F1400B62
:10127000236C5B6B2A46294658469847236C9B6B28
:10128000F02158469847236CDB6B4FF4A071584609
:1012900098471C22114610460DF04CF8A066236FAB
:1012A000DB6A1F2150469847236F1B6B192150465C
:1012B0009847EF221146F5200DF03CF8C4F898004D
:1012C000A4F89C50294650460AF04EFBD4F8A430AE
:1012D000DB6A2F2148469847D4F8A4301B6B422183
:1012E00048469847E7221146ED200DF023F8C4F850
:1012F000CC00A4F8D050394648460AF035FB04A982
:10130000022321F80C3D304609F0E0FFD4F8D83034
:101310005B6B6C22352130469847D4F8D8309B6BF4
:101320008C2130469847D4F8D830DB6B8A21304680
:1013300098472946304609F0BCFFD4F80431DB6AEF
:101340003B2140469847D4F804311B6B4FF484711D
:1013500040469847ADF8085004AA22F8047DA4F846
:10136000387102A940460AF086FB251D59462846D9
:1013700009F006F95146284609F002F9494628467F
:1013800009F0FEF83146284609F0FAF841462846A9
:1013900009F0F6F8204605B0BDE8F08FB418010852
:1013A000502B0108A42A010810B50446034B40F84D
:1013B000D83B09F07DFF204610BD00BFB4180108DE
:1013C00010B50446054B40F8D83B09F071FF4FF4C7
:1013D0009E7120460FF020FA204610BDB418010877
:1013E00000487047E018010803207047012800D02A
:1013F00070474FF6FF739942FAD1024B024A1A60C6
:10140000F6E700BF700200203C6A020838B5094BBD
:101410009880094A1A6000F035F8054600F038F85F
:10142000044600F033F8054B1D60054B1C60054B6E
:10143000188038BD700200203C6A02083C940020ED
:10144000449400204094002008B54FF6FF7101201D
:10145000FFF7CCFF08BD0000012800D070474FF611
:10146000FF739942FAD110B5FFF788FC044C206055
:10147000FFF7C8FC6060FFF745FCA06010BD00BF2F
:1014800088020020004870477C6A020802207047EA
:10149000004870478802002008B54FF6FF71012010
:1014A000FFF7DAFF08BD704710B504464FF4A87186
:1014B0000FF0B2F9204610BD10B50446D0F84C012B
:1014C00000F011F820460BF00BFB10BD10B50446E0
:1014D000FFF738FD014B2360204610BDBC1E0108FC
:1014E00000220260704770477047043870477047A9
:1014F000704710B5044610210FF08EF9204610BD3C
:1015000010B5041F102120460FF086F9204610BDAB
:1015100010B400228260054A02F1080404602032FF
:101520004260C1605DF8044B704700BF1C190108A0
:101530007047704710B50446FFF70AFE014B236061
:10154000204610BD4C19010810B50446034B40F865
:10155000D83B09F0ADFE204610BD00BFB41801080D
:1015600010B50446054B40F8D83B09F0A1FE4FF4F6
:101570009E7120460FF050F9204610BDB4180108A6
:101580007047704770477047012070470C207047C4
:1015900001EB41018B0008331844704701EB410116
:1015A0008B00083318447047012070474FF49E7039
:1015B00070474FF49E7303FB01F1083108447047F4
:1015C0004FF49E7303FB01F108310844704701207A
:1015D000704710207047090108310844704709011D
:1015E00008310844704708B50846FFF7D1FC08BD2C
:1015F00010B50446024B036008F0DCFE204610BD27
:10160000601F010810B50446044B036008F0D2FEC9
:10161000142120460FF000F9204610BD601F01087C
:1016200010B50446024B036008F0C4FE204610BD0E
:101630002C1F010810B50446054B036008F0BAFEE4
:101640004FF4A27120460FF0E7F8204610BD00BF0E
:101650002C1F010810B50446024B036008F0AAFED7
:10166000204610BDF81E010810B50446044B036067
:1016700008F0A0FE182120460FF0CEF8204610BD3D
:10168000F81E010810B504460B4B03600B4BC0F865
:10169000703100F5B87008F08DFE2046084B40F818
:1016A0002C3F08F087FE2046064B40F8143F08F018
:1016B00081FE204610BD00BF941F0108601F010875
:1016C0002C1F0108F81E0108012800D070474FF6B2
:1016D000FF739942FAD170B5144D154E2A4615493B
:1016E00030460FF094F8144C204600F029FE2A46AC
:1016F000124920460FF08BF82A461149301D0FF091
:1017000086F80023C4F8A43AC4F8A83A0D4BC4F8EC
:10171000A03A2A460C4904F52A600FF078F82A46C8
:101720000A4906F108000FF072F870BD00000020B1
:1017300014000020D10C000894020020E91F0008CA
:1017400087150008181B0108851500088115000879
:1017500010B504460D4B03600D4BC0F8703100F519
:10176000B87008F027FE20460A4B40F82C3F08F0DE
:1017700021FE2046084B40F8143F08F01BFE4FF4B2
:10178000367120460FF048F8204610BD941F01081E
:10179000601F01082C1F0108F81E010810B504463F
:1017A00004210FF039F8204610BD08B502F04EF8BC
:1017B00008BDF02070474FF4A070704708B500F0E6
:1017C00041FA00F07DFA00F0D9F900F064F908BDA3
:1017D00008B5034B18680368DB68984708BD00BF6D
:1017E000DC93002010B5044668210FF015F8204660
:1017F00010BD0000F8B5334C2478BFF35B8F14F0B4
:10180000010F01D03048F8BD1C4617460D4606466C
:101810002C480EF0D8FF0028F4D0A4B2BDF8180070
:10182000294B5E609D60DF6000221A615A611A8355
:101830005A839A83DA831A845A849A8483F82620F6
:101840009A629A855A639A63DA631A6483F8442029
:10185000012183F8451083F8461083F8541083F86B
:10186000552083F8562083F8571083F8582083F8C2
:10187000592083F85A2083F85B2083F85C201A668D
:1018800083F8652011490B60114B1C80114B1880A7
:10189000114B1A70114B1C80114B188084420ED2D0
:1018A0000123094C84F830300E4B236005480EF0BC
:1018B00096FF0D4A0D4920460EF0A9FFA2E71346F8
:1018C000EFE700BF889000208C900020DC93002080
:1018D000D0930020D2930020D4930020D6930020F0
:1018E000D8930020701A010800000020831500081A
:1018F0002DE9F04182B0BDF920400094FFF77AFF56
:10190000044609F039F9FFF76BFD0546FFF76CFD5A
:101910000B9B00930A9B099A014628460CF0F8FDA0
:101920002A4B2B4A1A600020FFF770FD29480CF063
:1019300059FD294B1B78BFF35B8F13F0010F0AD0C1
:1019400023681D6D0BF008FA01462046A847204683
:1019500002B0BDE8F08120480EF035FF0028EFD03E
:101960001E4D05F11400686005F12C08C5F80880CB
:1019700005F5B877EF6005F5C2762E61184B2B6040
:1019800008F01AFD174B6B61404608F015FD164B29
:10199000EB62384608F010FD144BC5F8703105F5C0
:1019A00035772A4639463046FFF790FD3846FFF72F
:1019B00097FD3046FFF7ECFA07480EF010FF0C4A8F
:1019C0000C4928460EF023FFBAE700BF48940020D8
:1019D000440D002014000020F4900020F890002016
:1019E000941F0108F81E01082C1F0108601F010840
:1019F00000000020851600082DE9F04184B0174949
:101A0000174D00260396029601964FF4A07300939B
:101A1000F0230A1D08312846FFF76AFF04460368D1
:101A2000D3F87480012700973B4610224FF05041B5
:101A3000C047022384F8543084F8457084F8586015
:101A400084F8466005F52A65284600F017FE2561F2
:101A500084F85C7004B0BDE8F08100BF1400002081
:101A60009402002008B5FFF7C7FF08BD10B5044673
:101A700010210EF0D1FE204610BD10B50446042101
:101A80000EF0CAFE204610BD08B54FF6FF710120CA
:101A9000FFF71AFE08BD7047704770477047000097
:101AA0002E4B1B6803B170472DE9F04186B04FF013
:101AB00001082A4BC3F8008000240094284B9A6B3D
:101AC00042EA08029A639B6B03EA08030093009BB7
:101AD0004FF63F03019302270297039403260496CF
:101AE0000C25059501A91F4802F094F9CDF8048052
:101AF000029703940496059501A91B4802F08AF900
:101B000048F233130193029703940496059501A9B3
:101B1000164802F07FF94FF68373019302970394FE
:101B20000496059501A9124802F074F94CF203736A
:101B30000193029703940496059501A90D4802F0BC
:101B400069F960230193029703940496059501A90E
:101B5000094802F05FF906B0BDE8F081480D0020A9
:101B60000038024000140240000802400018024001
:101B700000100240000C02400004024030B58FB05B
:101B800001F020FA2C4C04F10805284603F0E2FE8F
:101B90002A4BA3600023E36023616361A3610922F0
:101BA000E261012222621D2262620322A26240F2ED
:101BB0000D12E26240F24312226340F21712626396
:101BC00040F24712A26384F83C3084F83D3084F838
:101BD0003E30284603F044FE40BB00220192F02133
:101BE000029103924FF4A073049302200590FF200A
:101BF000069007924FF4C0600890072009904FF0BC
:101C000050400A900B910C938DF834208DF83520BC
:101C10008DF8362001A90A4803F017FF48B90022C1
:101C2000F021074803F040FF0FB030BDFEF7D8FEAB
:101C3000D3E7FEF7D5FEF2E7480D0020006801402B
:101C4000500D002000B589B01B481C4BC0F8B030C7
:101C50000123C0F8B4300023C0F8B8300421C0F824
:101C6000BC101022C0F8C0204022C0F8C4204FF49D
:101C7000C072C0F8C820C0F8CC304FF40062C0F881
:101C8000D020C0F8D4304FF40053C0F8D83002232D
:101C90000193072202920391049203220592069374
:101CA00007936944B03004F0C1FB10B909B05DF886
:101CB00004FBFEF795FEF9E7480D0020400100A067
:101CC0002DE9F04782B04FF00009CDF80490294C7F
:101CD0000126C4F8E4604FF00808C4F8E880C4F8AE
:101CE000EC60C4F8F09004F1E40704F1B0054FF69D
:101CF000FF723946284604F0B8FB304601F0A6FDD5
:101D00000223C4F8E430C4F8E880C4F8EC60C4F8F6
:101D1000F0904FF6FF723946284604F0A6FB0323E5
:101D2000C4F8E430C4F8E8804FF0040AC4F8ECA02A
:101D3000C4F8F0904FF6FF723946284604F095FB40
:101D40004FF40C730193C4F8E4A0C4F8E880C4F81D
:101D5000EC60019BC4F8F0304FF6FF72394628461C
:101D600004F083FB40F26A51284604F09BFB02B06A
:101D7000BDE8F087480D002002683F4B9A4200D032
:101D800070472DE9F04186B00024009403F55043DC
:101D90005A6C42F080625A645B6C03F0806300937B
:101DA000009B4FF4806301930225029503940494F1
:101DB0000E26059601A9314802F02CF841F6580389
:101DC0000193029503940494059601A92C4802F00E
:101DD00021F8032301930295039404944FF009081A
:101DE000CDF81480274F01A9384602F013F84FF4BC
:101DF00070630193029503940494059601A93846F3
:101E000002F008F84FF40C630193029503940494D4
:101E1000059607F5A05701A9384601F0FBFF4FF4DE
:101E200098630193029503940494059601A91648BA
:101E300001F0F0FF48230193029503940494059662
:101E400001A9124801F0E6FF4FF4A0530193029557
:101E500003940494CDF8148001A9384601F0DAFF08
:101E600022460521582001F017FD582001F048FDB9
:101E700006B0BDE8F08100BF0068014000140240D8
:101E8000000002400004024000080240000C024032
:101E900008B50268144B9A4200D008BD134A536C2F
:101EA00023F0806353644FF48061114802F0A2F87C
:101EB00041F658010F4802F09DF840F603710E48B4
:101EC00002F098F84FF4E6510C4802F093F84FF402
:101ED00098610B4802F08EF848210A4802F08AF80F
:101EE000582001F019FDD8E7006801400038024091
:101EF00000140240000002400004024000180240AA
:101F000000080240000C024008B5FFF7C9FD08BDFB
:101F100002680E4B9A4200D0704700B583B0002291
:101F20000192A3F5F043196B41F4000119631B6B97
:101F300003F400030193019B05215A2001F0ACFC3E
:101F40005A2001F0DDFC03B05DF804FB00B0024054
:101F500008B50268064B9A4200D008BD054A136BCB
:101F600023F4000313635A2001F0D6FCF5E700BF09
:101F700000B002400038024008B503681B6C984767
:101F800008BD08B503685B6A984708BD30B40568AA
:101F90002C6824F44034214329600468616B21F0EB
:101FA00007010A43626301680A6C22F47F5222F03F
:101FB0003F0213430B64002030BC704708B5034B4D
:101FC0001B68586803685B69984708BDDC9300206C
:101FD00070470000034B1B780BB10020704740F2A4
:101FE000EF1070477C0E002010B50446054B0360CF
:101FF000054801F0C7FD054B4FF08062C3F888200B
:10200000204610BD801901083C0E002000E100E0D0
:1020100010B50446FFF7E8FF4FF42A6120460EF0A2
:10202000FBFB204610BD000010B5074C074B23609A
:10203000204601F0D4FC064B2361064B6361064B3E
:102040004FF080629A6010BD3C0E002000B002404C
:10205000BD1F0008D11F000800E100E02DE9F04796
:1020600082B00C460B68202B07D0402B21D0042BCC
:1020700001D0002602E0012600E00126802B1CD0C2
:10208000B3F5807F17D00027624B1B689868036800
:102090001B6A984780462368402B77D00FD9802B46
:1020A00018D0B3F5807F0ED14FF0090A4FF40031FC
:1020B00014E00126E2E70127E6E70127E4E7042B25
:1020C00058D0202B62D0B8F1100F64D04FF0010A25
:1020D000002103E04FF00A0A4FF400314E4B5960E3
:1020E000B8F1100F5BD04FF001094B4DC5F80890C7
:1020F000638AA2899A1AEA60A2899B1A4A462846EC
:10210000FFF744FFC5F82CA0238AA2899B1AAB6273
:1021100006B9DFB1237EFF2B44D03F4B02221A6366
:10212000227E5A6347B1B8F1100F3FD06369227E17
:1021300043EA0263384A5363638AA2899B1A36488A
:102140008361C0F81C90002101F000FE012132489B
:1021500001F0FCFD0EB9002F53D06168A268A3897D
:10216000E0890190009313462B4801F086FC02B0F1
:10217000BDE8F087102804D04FF0010A4FF4003179
:10218000ACE74FF0020A4FF40031A7E74FF0000A26
:102190004FF40031A2E74FF0020A00219EE74FF012
:1021A0000209A2E71C4B00221A63BBE76369C3F371
:1021B000C421C1EB0121194880FB01525518CA17EF
:1021C000C2EB2512C3F34511C1EB0121144D85FB70
:1021D00001C50D44C917C1EB651103F01F03C3EB23
:1021E000032380FB03501844DB17C3EB2013207E2E
:1021F000120442EA006242EA01221343064A536390
:102200009AE76168A268A389E0890090024801F01A
:1022100013FCACE7DC9300203C0E00204308218433
:1022200083200882F0B583B00C46414B1B68986848
:1022300003681B6A9847102830D0012610282FD039
:10224000237E656945EA03652368082B52D14FF464
:102250000037384847608660638AA2899A1AC2604C
:10226000A2899B1A32463946FFF790FEB7F5003F28
:1022700043D0304BDE6200229A6201212D4801F0EA
:1022800065FDB7F5003F47D0A268A389E1890091B9
:102290002946284801F0D0FB03B0F0BD0226CDE767
:1022A0006369C3F3C422C2EB0222234981FB020506
:1022B0001544D217C2EB2515C3F34512C2EB022217
:1022C0001E4880FB02701044D217C2EB601203F06C
:1022D0001F03C3EB032381FB03011944DB17C3EB8B
:1022E0002113217E2D0445EA016545EA022242EAD6
:1022F0000305A9E74FF44037ABE70E48012303631A
:1023000045630923C362638AA2899B1A8361C661FC
:10231000002101F01BFDB0E7A168A389E2890192C9
:1023200000930B460A46034801F0A7FBB4E700BF41
:10233000DC9300203C0E0020430821848320088287
:1023400038B505460C30686000232B726B722C4642
:10235000084B44F8203B6022214608F041FF5F23F0
:10236000002B04DB002262611C34013BF8E72846A5
:1023700038BD00BF8019010880F86410012380F87F
:102380006530704708B5406803681B68984708BD0A
:102390000020704708B5436B0BB10846984708BD4D
:1023A00010B490F8642090F830309A4212D0124B5A
:1023B0001B7863B9114B1888114A108011490A889B
:1023C000114C228008801A800B4B01221A705DF894
:1023D000044B7047084B1B78002BF8D009490A883A
:1023E000074B1A80054B1888074C208008801A80FC
:1023F000014B00221A70EAE7D4930020D09300200A
:10240000D6930020D2930020D8930020014B986AE5
:10241000704700BF84680140024B9962843B0122EF
:102420005A62704784680140064B586C80B2DB6882
:10243000C3F30A030133984202D3C01A80B2704733
:102440000020704700680140034B902283F85A2314
:1024500083F85823704700BF00E100E0064B4FF0BF
:102460008072C3F888204FF08062C3F888204FF054
:102470000072C3F88820704700E100E0054B4FF080
:1024800080729A604FF080629A604FF000729A609A
:10249000704700BF00E100E010B50B4BD968C1F3F5
:1024A0000A01013989B2094A11801B69C3F30A0381
:1024B000013B5380064C204603F048FB2268536BD7
:1024C00043F00303536310BD006801407E0E0020FB
:1024D000500D002010B5044608F03EFD2368D3F8E7
:1024E00084302046984710BD10B569B18163C2633E
:1024F0000364003218BF012207490A70003318BF75
:102500000123064A137010BD054B064A4FF4437170
:1025100005480EF08DF900BFDA930020DB93002010
:10252000C01F0108C4190108F81F010870B59DF803
:102530001040551E1F2D34D8DFE805F02525332522
:1025400033333310333333333333331033333333A1
:10255000333333103333333333333310174D2E8843
:10256000174D2D8805FB06F5D20802FB05F28163A5
:10257000F3B11144C163F4B900220264114A13702B
:10258000114B1C7070BD0D4D2D8802FB05F20732FA
:1025900005D4D2100A4D2D8802FB05F2E7E7073279
:1025A000F7E70A4B0A4A4FF439710A480EF040F92E
:1025B0000025C563DFE70A440264DFE7D09300200B
:1025C000D2930020DA930020DB930020A01F0108A3
:1025D000141A0108F81F010810B5124B1B6C124A9F
:1025E00011888B420AD003F0B1FA0020FFF755FAA8
:1025F0000E4B186803689B69984710BD518803F01B
:10260000A5FA0A4C226892F85630013382F8563007
:1026100006F0B8FD206808F09FFC0020FFF73CFAA8
:10262000EBE700BF006801407E0E0020DC93002035
:102630004068704741607047521A02EB5302B2FB88
:10264000F3F07047034B1B685B6AC06800FB03F044
:10265000704700BF840E002010B5044621B90368FE
:102660001B699847A06010BD03681B699847A36861
:10267000C01A636818446060F5E7000030B58FB099
:10268000054600230193264A516C41F00101516433
:10269000526C02F001020192019A04930593069391
:1026A0000793029303931F481F4A026043608360AD
:1026B000C3600361436104F08DFA18BB0EA94FF4A7
:1026C000805341F8283D174804F0DFF8E8B90023AB
:1026D0000293039302A9134804F095FAC0B908A91C
:1026E00009A803F051FD0C9BABB103F03DFD440084
:1026F00003F034FDB0FBF4F0E8600A4804F0ACF8F5
:102700000FB030BDFEF76CF9D8E7FEF769F9DEE7E8
:10271000FEF766F9E3E703F027FD0446E8E700BFAC
:1027200000380240840E00200000014010B5FFF781
:1027300040F80446FFF73FF881B2A0B200F046FA35
:1027400010BD30B583B00D461446684600F05CFA03
:10275000BDF8003043B1BDF802302B60BDF8043045
:102760002360012003B030BD0020FBE700B589B035
:1027700000210191124B5A6C42F480125A645A6C37
:1027800002F480120192019A02911A6B42F0200227
:102790001A631B6B03F020030293029B4FF46073D8
:1027A00003930223049305930123069305230793C0
:1027B00003A9044801F02EFB09B05DF804FB00BF3B
:1027C000003802400014024002682A4B9A4200D0AE
:1027D000704730B589B000250095274C236B43F036
:1027E00004032363236B03F004030093009B019510
:1027F000236B43F001032363236B03F00103019375
:10280000019B4FF4807303931223049305950223D5
:1028100006930423079303A9184801F0FBFA4FF429
:102820000073039303A9164801F0F4FA0295236C90
:1028300043F400032364236C03F400030293029B1C
:10284000236A43F400032362236A23F40003236210
:102850002A460F21482001F01FF8482001F050F8C7
:102860002A460F21492001F017F8492001F048F8C5
:1028700009B030BD005C004000380240000002405A
:102880000008024010B586B0002400940F4B1A6B6C
:1028900042F001021A631B6B03F001030093009BDB
:1028A0004FF400430193012303930494084B0293D4
:1028B00001A9084801F0AEFA22460F21282000F0B5
:1028C000EBFF282001F01CF806B010BD00380240D4
:1028D000000021100000024010B5104803F07EFFF8
:1028E00000B110BD0D4C0E4B23601823E361002393
:1028F000A36063612361A3620722E262E360236253
:102900004FF40072A26163624FF4827363602046E9
:10291000FFF72CFF204603F038FEE2E7C00E002050
:102920000050014008B5034803F06FFEFFF7D4FFE5
:1029300008BD00BFC00E002000B583B002A921F879
:10294000020D064B1B680122054803F074FE10B906
:1029500003B05DF804FBFFF7E5FFF9E72000002076
:10296000C00E002010B50D4802F06AFE00B110BD87
:102970000A4C0B4B23600B4B63600023A360E360A6
:102980004FF4804222616361A361E36123622046C8
:10299000FFF71AFF204602F079FBE8E7BC9400201D
:1029A000005C0040A086010008B5034802F0FCFB73
:1029B000FFF7D8FF08BD00BFBC94002010B586B05B
:1029C00006AC04F8012D084B5B68029301230193C8
:1029D00000940A460146054802F000FC08B906B01A
:1029E00010BDFFF7E1FFFAE720000020BC940020B3
:1029F00000B587B006AA002302F8013D094B5B68C9
:102A000002930123019300920A460146064802F010
:102A1000A3FC20B99DF8170007B05DF804FBFFF791
:102A2000C3FFF7E720000020BC94002010B584B05D
:102A3000094C646802940193009201230A460146FE
:102A4000064802F089FC10B9002004B010BDFFF761
:102A5000ABFF0120F9E700BF20000020BC9400205C
:102A60002F4B93F8583003B170472DE9F04188B0EF
:102A700001262B4B83F8586000250095294C236BC9
:102A800043F008032363236B03F008030093009BC8
:102A90004FF400530393049605954FF00208CDF8C8
:102AA0001880214F03A9384601F0B4F90195236B32
:102AB00043F008032363236B03F008030193019B96
:102AC0004FF48053039304960595CDF8188003A91D
:102AD000384601F09FF90295236B43F0040323630A
:102AE000236B03F004030293029B042703970496CD
:102AF0000595CDF81880A4F5405403A9204601F0AF
:102B000089F92A463946204601F012FB32463946F9
:102B1000204601F00DFBFFF7DFFE08B0BDE8F081B5
:102B2000C00E002000380240000C024038B50546B7
:102B300001224FF40051094801F0FAFA084C002232
:102B40000421204601F0F4FA2846FFF7F5FE0122A1
:102B50000421204601F0ECFA38BD00BF000C024011
:102B60000008024038B5054600224FF400510948DC
:102B700001F0DEFA084C00220421204601F0D8FAC8
:102B80002846FFF7D9FE01220421204601F0D0FAA1
:102B900038BD00BF000C02400008024008B5FFF736
:102BA000E1FE08BD08B5FFF76DFE08BD08B5FFF7EB
:102BB00005FF08BD08B5FFF71BFF08BD08B5FFF707
:102BC00035FF08BD08B500F041FE08BD10B50C4B3F
:102BD000188059800B4B5B688220984740F61103A0
:102BE00098420BD1064C074B63601B6882209847C4
:102BF0006368DB6882209847002010BD0120FCE755
:102C00001C0F00206000002030B583B00446324B1A
:102C10005B681B698220984780B2208000284AD0D8
:102C20002D4B5B685B6901AA0DF106018220984774
:102C3000BDF80430A3F5B4739BB2284AA2FB03236A
:102C4000DB0805D0244A52889A4201D2531E9BB217
:102C5000BDF8062040F6B8318A422ED8C2F571621E
:102C60000E32ADF80620BDF806201D49A1FB021268
:102C7000D20805D018490988914201D24A1E92B261
:102C80001046154989688A421DD989B2521A92B2F2
:102C90001D461149C9688B4219D989B25B1A9BB28A
:102CA0001A44052A02DD0C4B9860DD600A4B9A68D5
:102CB0006280DB68A38003B030BDC2F56D6208326C
:102CC000ADF80620CFE789B28A1A92B2E0E789B25E
:102CD000CB1A9BB2E4E700BF1C0F0020A38B2EBAD7
:102CE0008988888804290CD0052902D0022904D0BB
:102CF0007047064B03221A707047044B02221A7069
:102D00007047024B01221A70F2E700BF2C0F00201F
:102D100010B5074C00220749204606F079FD064908
:102D2000204606F0A9FD204606F0EAFD10BD00BFD2
:102D300010950020E52C00089C0000200268194B2B
:102D40009A4200D0704730B587B04FF4504301939A
:102D5000022302930024039404940C230593124D40
:102D600001A9284601F056F84FF40053019302944C
:102D7000039401A9284601F04DF800940B4B1A6BFF
:102D800042F000521A631B6B03F000530093009B48
:102D9000224605214D2000F07FFD4D2000F0B0FDC2
:102DA00007B030BD0000044000040240003802407B
:102DB00008B5D0F8940206F0A8FE08BD08B5D0F812
:102DC000940206F0ABFE08BD08B5D0F8940206F0F8
:102DD000C0FE08BD08B5D0F8940206F0DCFE08BDC0
:102DE00090F8BC330BB10020704710B50446114871
:102DF000C0F89442C4F8C0030F4B03600C238360F7
:102E00000323C3600023036102228261C361036262
:102E1000C362436301F01BFA40B9064801F00DFF9D
:102E20000146204606F06EFE002010BDFDF7D8FDDD
:102E3000F3E700BFE09800200000044008B5D0F898
:102E4000C00301F0C0FE18B1022803D0022008BD63
:102E50000020FCE70120FAE708B5D0F8C00301F034
:102E6000C8FE18B1022803D0022008BD0020FCE7EC
:102E70000120FAE708B5D0F8C00301F0E3FE18B16D
:102E8000022803D0012008BD0020FCE70220FAE759
:102E900008B5D0F8C00301F0BEFE18B1022803D077
:102EA000022008BD0020FCE70120FAE708B5D0F8B1
:102EB000C00301F0BCFE08BD10B584B0D0F8C0035B
:102EC000BDF8204002949DF81C4001949DF81840E4
:102ED000009401F071F920B1022804D0022004B05E
:102EE00010BD0020FBE70120F9E708B5D0F8C003CA
:102EF00001F09BF918B1022803D0022008BD002080
:102F0000FCE70120FAE710B584B0D0F8C0039DF8C3
:102F100024400394BDF820400294079C01949DF83E
:102F20001840009401F0CFF920B1022804D002200B
:102F300004B010BD0020FBE70120F9E708B5D0F888
:102F4000C00301F06DFE08BD08B590F8BC3323B195
:102F5000C82000F07BFC002008BD084600F01EF8E9
:102F6000F6E710B4D0F8C03301EB8104E00004466A
:102F7000184490F83B0048B901EB8101C8000344B4
:102F800083F8512000205DF8044B7047234483F8F8
:102F90005020F7E708B500F059FC08BD08B528B186
:102FA00000221021024801F0C3F808BD0122F8E711
:102FB0000008024008B5FFF7D5FD08BD08B5FFF7CA
:102FC000B5FD08BD08B5FFF74BFDCA20FFF7F2FFBE
:102FD000C320FFF7F3FF0820FFF7F0FF5020FFF7B3
:102FE000EDFFCF20FFF7E6FF0020FFF7E7FFC1204E
:102FF000FFF7E4FF3020FFF7E1FFED20FFF7DAFFF6
:103000006420FFF7DBFF0320FFF7D8FF1220FFF754
:10301000D5FF8120FFF7D2FFE820FFF7CBFF852007
:10302000FFF7CCFF0020FFF7C9FF7820FFF7C6FFAE
:10303000CB20FFF7BFFF3920FFF7C0FF2C20FFF7A1
:10304000BDFF0020FFF7BAFF3420FFF7B7FF0220D3
:10305000FFF7B4FFF720FFF7ADFF2020FFF7AEFF2B
:10306000EA20FFF7A7FF0020FFF7A8FF0020FFF7E7
:10307000A5FFB120FFF79EFF0020FFF79FFF1B2059
:10308000FFF79CFFB620FFF795FF0A20FFF796FF9A
:10309000A220FFF793FFC020FFF78CFF1020FFF75F
:1030A0008DFFC120FFF786FF1020FFF787FFC520A7
:1030B000FFF780FF4520FFF781FF1520FFF77EFF18
:1030C000C720FFF777FF9020FFF778FF3620FFF744
:1030D00071FFC820FFF772FFF220FFF76BFF00209F
:1030E000FFF76CFFB020FFF765FFC220FFF766FF18
:1030F000B620FFF75FFF0A20FFF760FFA720FFF76A
:103100005DFF2720FFF75AFF0420FFF757FF2A2013
:10311000FFF750FF0020FFF751FF0020FFF74EFFA1
:103120000020FFF74BFFEF20FFF748FF2B20FFF7B2
:1031300041FF0020FFF742FF0020FFF73FFF012083
:10314000FFF73CFF3F20FFF739FFF620FFF732FF84
:103150000120FFF733FF0020FFF730FF0620FFF7C5
:103160002DFF2C20FFF726FFC820FEF71EFB262090
:10317000FFF720FF0120FFF721FFE020FFF71AFFF4
:103180000F20FFF71BFF2920FFF718FF2420FFF770
:1031900015FF0C20FFF712FF0E20FFF70FFF09208D
:1031A000FFF70CFF4E20FFF709FF7820FFF706FF1F
:1031B0003C20FFF703FF0920FFF700FF1320FFF774
:1031C000FDFE0520FFF7FAFE1720FFF7F7FE11209E
:1031D000FFF7F4FE0020FFF7F1FEE120FFF7EAFE23
:1031E0000020FFF7EBFE1620FFF7E8FE1B20FFF79D
:1031F000E5FE0420FFF7E2FE1120FFF7DFFE0720C7
:10320000FFF7DCFE3120FFF7D9FE3320FFF7D6FEB3
:103210004220FFF7D3FE0520FFF7D0FE0C20FFF77A
:10322000CDFE0A20FFF7CAFE2820FFF7C7FE2F2099
:10323000FFF7C4FE0F20FFF7C1FE1120FFF7BAFE13
:10324000C820FEF7B2FA2920FFF7B4FE2C20FFF7C2
:10325000B1FE08BD0023012B06D8054AD25C82428C
:1032600003D00133DBB2F6E7FF231846704700BFF7
:10327000300F002008B52AB9CAB21121C0B2FFF739
:1032800095FC08BDCAB21021C0B2FFF78FFCF8E769
:1032900010B5C4B2022203212046FFF787FC0A20A2
:1032A000FFF790FC002203212046FFF77FFC02205D
:1032B000FFF788FC10BD000010B50446FFF7CAFFF9
:1032C000FF2800D010BD0020FFF7C4FF0128F9D867
:1032D000034B1C54FFF762FC2046FFF7D9FFF1E7D0
:1032E000300F002038B50446FFF758FCE4B2002147
:1032F0002046FFF75FFC050201212046FFF75AFC3C
:1033000000B2284380B238BD10B50C461221C0B2BD
:10331000FFF750FCE4B2204010BD10B50C460D2163
:10332000C0B2FFF747FCE4B2204010BD10B5C4B2F4
:1033300040212046FFF73EFC10F0800F0CD1012207
:103340004B212046FFF732FC00224B212046FFF79D
:103350002DFC0023184610BD4C212046FFF72AFC07
:1033600003460028F6D00123F4E770B582B00E467C
:103370001546C4B204230DEB0302D7212046FFF704
:103380001DFC9DF804209DF805301B0443EA0263F0
:103390009DF8062043EA02239DF8072013431A0DE7
:1033A0003280C3F30B232B8001224B212046FFF7F1
:1033B000FDFB00224B212046FFF7F8FB02B070BD59
:1033C00010B5C4B209212046FFF7F4FB40F001021A
:1033D000D2B209212046FFF7E9FB10BD10B5C4B2F7
:1033E00009212046FFF7E6FB00F0FE0209212046F6
:1033F000FFF7DCFB10BD38B50C46C5B20A212846E4
:10340000FFF7D8FB40EA0402D2B20A212846FFF7B0
:10341000CDFB38BD10B50446FFF7C4FB8021204624
:10342000FFF7E9FF2046FFF7CBFF10BD10B50446BC
:10343000FFF7B8FB1F212046FFF7DDFF2046FFF70F
:10344000BFFF10BD38B50C46C5B20A212846FFF7AC
:10345000B1FB20EA0402D2B20A212846FFF7A6FBFC
:1034600038BD10B50446FFF7B9FF80212046FFF7AD
:10347000E9FF10BD10B50446FFF7B0FF1F2120463D
:10348000FFF7E0FF10BD38B50D46C4B20921204654
:10349000FFF790FB00F0FB022A4309212046FFF7CB
:1034A00085FB38BD38B50D46C4B209212046FFF76B
:1034B00081FB00F0FD022A4309212046FFF776FB3D
:1034C00038BD10B50C460B21C0B2FFF773FB20408E
:1034D00010BD08B51F21FFF7F4FF08BD08B50A4667
:1034E0000B21C0B2FFF762FB08BD38B504460D469C
:1034F0008021FFF7F3FFE4B2EDB22A460D2120460A
:10350000FFF754FB2A4614212046FFF74FFB2A46BB
:1035100015212046FFF74AFB2A4616212046FFF7D1
:1035200045FB38BD08B51F21FFF7D8FF08BD70B5B2
:103530000C461646C5B213212846FFF73BFB3EB9A1
:1035400020EA0402D2B213212846FFF72FFB70BDF8
:10355000E2B20243D2B2F6E738B50C46C5B2172143
:103560002846FFF727FBE4B20443E2B217212846BE
:10357000FFF71CFB38BD70B504460E46C5B20421EA
:103580002846FFF717FB00F0FA0204212846FFF750
:103590000DFBF1B22046FFF7DFFF70BD38B50C46DA
:1035A000C5B217212846FFF705FB20EA0402D2B274
:1035B00017212846FFF7FAFA38BD70B50646C4B29F
:1035C00004212046FFF7F6FA054600F0FB0204212D
:1035D0002046FFF7EBFAF0213046FFF7DFFF05F05A
:1035E000F80204212046FFF7E1FA49222021204673
:1035F000FFF7DCFA0220FFF7E5FA0122212120463D
:10360000FFF7D4FA9A2241212046FFF7CFFA012290
:103610004A212046FFF7CAFA01224B212046FFF734
:10362000C5FA00224B212046FFF7C0FA012256219D
:103630002046FFF7BBFA012258212046FFF7B6FAD1
:10364000012240212046FFF7B1FAFF220B2120463C
:10365000FFF7ACFA0220FFF7B5FA70BD2DE9F04193
:103660000E461746C5B216212846FFF7A3FA804634
:1036700015212846FFF79EFAF44364B204EA0802D3
:10368000D2B20440E4B217F0010F01D0F3B21A43F2
:1036900017F0020F01D0F6B2344316212846FFF787
:1036A00085FA224615212846FFF780FABDE8F08109
:1036B00038B50C46C5B20C212846FFF77BFAE4B2B8
:1036C0000443E2B20C212846FFF770FA38BD38B542
:1036D00004460D46052A64D8DFE802F003080D23EE
:1036E000394E0022FFF723FF002038BD0122FFF7EB
:1036F0001EFF0020F9E7FFF78DFE29462046FFF761
:10370000D7FF002229462046FFF711FF022120465D
:10371000FFF7C8FE022229462046FFF79FFF002040
:10372000E3E7FFF777FE29462046FFF7C1FF0022B7
:1037300029462046FFF7FBFE02212046FFF7B2FE96
:10374000012229462046FFF789FF0020CDE7FFF739
:1037500061FE29462046FFF7ABFF0022294620469E
:10376000FFF7E5FE00212046FFF79CFE00212046E2
:10377000FFF789FE0020B8E7FFF74CFE29462046F8
:10378000FFF796FF002229462046FFF7D0FE0021D2
:103790002046FFF787FE04212046FFF774FE002035
:1037A000A3E71046A1E700000F49D1F8883043F4A1
:1037B0007003C1F888300D4B1A6842F001021A609C
:1037C000002098601A6822F0847222F480321A6015
:1037D000074A5A601A6822F480221A60D8604FF0B3
:1037E00000638B60704700BF00ED00E000380240CE
:1037F0001030002408B50B4B1A6842F400721A60AE
:103800001A6842F480621A601A6842F480721A6080
:10381000032000F02FF80020FDF7F6F9FDF7E2F89D
:10382000002008BD003C0240034A1168034B1B788E
:103830000B441360704700BF789B00208C00002071
:10384000014B1868704700BF789B002038B50446CC
:10385000FFF7F6FF0546B4F1FF3F02D0044B1B789B
:103860001C44FFF7EDFF401BA042FAD338BD00BF58
:103870008C000020074AD36823F4E0631B041B0C70
:10388000000200F4E060184340F0BF6040F40030F4
:10389000D060704700ED00E030B4174BDB68C3F335
:1038A0000223C3F10704042C28BF04241D1D062D88
:1038B00018D9033B4FF0FF3505FA04F421EA04015F
:1038C000994005FA03F322EA0303194300280BDBAE
:1038D0000901C9B200F1604000F5614080F80013B1
:1038E00030BC70470023E5E700F00F000901C9B2C2
:1038F000024B1954F4E700BF00ED00E014ED00E0C6
:1039000000F01F02400901239340024A42F8203090
:10391000704700BF00E100E000F01F0240090123F2
:1039200093402030014A42F82030704700E100E027
:1039300068B110B5044643792BB1022363710123AA
:103940006371002010BD0371FDF76EF8F5E70120EB
:10395000704770B40668746C04F04044039D45EAF7
:1039600003431C4374640368DA634368B3F5403F60
:1039700003D00368D96070BC704701F07F4601F442
:103980007F0301F47F45CAB2846894B1012C0ED044
:10399000022C11D0032C17D0360F1B0D2D0B190242
:1039A00041EA051141EA063141EA121101E021F034
:1039B0007F4103689963DEE7DB0CAD0AD90241EA77
:1039C000451141EAD201F4E7F60FDB0CED0A99024A
:1039D00041EA451141EAC63141EAD201E9E748B37B
:1039E00010B5044690F83930FBB1022384F8393021
:1039F0002268136823F4403361680B431360226824
:103A0000536B23F00703A1680B4353632268136CC5
:103A100023F47F5323F03F03E1680B43136400203A
:103A2000E063012384F8393010BD80F83830FEF7A8
:103A30006FFADAE70120704710B582B090F838408D
:103A4000012C18D00446012084F83800022084F8A4
:103A50003900049800902046FFF77BFF2268136826
:103A600043F40C5313602268136843F0010313609E
:103A7000002002B010BD0220FBE730B583B090F803
:103A80003840012C1CD01D460446012380F83830F4
:103A9000022380F8393003685A61079B0093069B24
:103AA0002A46FFF756FF2268136843F40C5313604D
:103AB0002268136843F001031360002003B030BD97
:103AC0000220FBE738B504460268136823F00503BB
:103AD00043F004031360FFF7B3FE054623681A683A
:103AE00012F0010F10D0FFF7ABFE401BB0F57A7F4C
:103AF000F4D9E36B43F02003E363032084F8390037
:103B0000002384F8383009E01A6822F40C521A6055
:103B1000012384F83930002084F8380038BD70B5AE
:103B20000646036803F124041A6842F004021A608E
:103B3000012917D0FFF784FE0546236813F0200FF4
:103B400013D0FFF77DFE401BB0F57A7FF5D9F36BFC
:103B500043F02003F363032086F83900002386F83E
:103B600038300DE004681C34E4E73268136823F44D
:103B700064531360012386F83930002086F838003A
:103B800070BD000000283DD010B504461E4B1B6BD5
:103B900013F4000F0CD003681A6812F0010F1DD146
:103BA0005A6A12F0200F1FD1DB6913F0200F22D1C7
:103BB0002046FEF7CDF923680020186023681861BD
:103BC000236898612368D861236858622368586322
:103BD000E06384F8390084F8380010BDFFF772FF05
:103BE0000028E5D00120F8E70021FFF798FF002822
:103BF000DED00120F1E70121FFF791FF0028D7D0A7
:103C00000120EAE701207047003802407047704702
:103C100070B5044603685D681E6815F0010F16D084
:103C200016F4807F13D01A6822F480721A60C36B76
:103C300043F00103C363036801229A60042380F800
:103C40003930002380F83830436903B1984715F0C4
:103C5000200F18D016F4005F15D02268136823F4E3
:103C600000531360236820229A60E36B43F0020341
:103C7000E363042384F83930002384F8383063691F
:103C80000BB12046984715F0080F18D016F4006FB6
:103C900015D02268136823F4006313602368082298
:103CA0009A60E36B43F00403E363042384F8393040
:103CB000002384F8383063690BB12046984715F02B
:103CC000040F02D016F4806F20D115F0020F16D029
:103CD00016F4007F13D02268136823F40073136076
:103CE000236802229A60E36BE363012384F839308E
:103CF000002384F8383023690BB12046984715F02B
:103D0000100F02D016F4805F0CD170BD22681368CA
:103D100023F480631360236804229A602046FFF72F
:103D200075FFD2E72268136823F480531360236879
:103D300010229A60E36BE363012384F83930002397
:103D400084F838302046FFF762FFDEE790F838301D
:103D5000012B5BD030B4012380F83830022380F887
:103D6000393000EB0113DB69A3F10902012A21D9E3
:103D70008A1C12018418825843EA0243626843EAAB
:103D8000026359BB0468656A214A2A40134363628F
:103D9000026800EB01139C699461DB69093B012B0C
:103DA00013D9012380F83930002380F838301846C1
:103DB00030BC70478A1C12018418825843EA0243BF
:103DC000626802F07F421343DBE7023100EB01112E
:103DD0004B68026823F07F439362E2E70468E56979
:103DE0000B4A2A401343E361026800EB01139C690C
:103DF0001461DB69093B012BD3D8023100EB0111BF
:103E00004B68026823F07F431362CAE702207047C1
:103E1000F0FFFC0000230F2B00F2E380F0B482B02F
:103E200039E0092200E00022B2403A4302346D4EEC
:103E300046F824206C4A1468EA4302EA04064F68F4
:103E400017F4803F01D045EA0406674C2660646899
:103E500002EA04064F6817F4003F01D045EA040661
:103E6000614C6660A46802EA04064F6817F4801F7C
:103E700001D045EA04065C4CA660E46822404E6826
:103E800016F4001F01D045EA0402574CE2600133EA
:103E90000F2B00F2A38001229A400C6804EA02056D
:103EA000AA42F4D14C68022C01D0122C10D1DE08A9
:103EB000083650F826C003F00704A7000F24BC40C2
:103EC0002CEA040C0C69BC4044EA0C0440F826407F
:103ED00004685F000326BE40F64306EA040C4C6803
:103EE00004F00304BC4044EA0C0404604C6804F190
:103EF000FF3CBCF1010F03D9112C01D0122C10D1C1
:103F0000846806EA040CCC68BC4044EA0C04846073
:103F1000446824EA02024C68C4F300149C40144331
:103F20004460C26816408A68BA403243C2604A6838
:103F300012F0805FABD0002201922C4A546C44F402
:103F400080445464526C02F480420192019A9C08AD
:103F5000A61C244A52F8267003F0030296000F2292
:103F6000B24027EA0207224A90423FF45CAF02F5D2
:103F70008062904222D002F58062904220D002F509
:103F8000806290421ED002F5806290421CD002F501
:103F9000806290421AD002F58062904218D002F5F9
:103FA0008062904216D002F58062904214D002F5F1
:103FB000806290423FF435AF0A2235E7012233E7B1
:103FC000022231E703222FE704222DE705222BE707
:103FD000062229E7072227E7082225E702B0F0BCDE
:103FE0007047704700380140003C014000380240F3
:103FF0000000024000230F2B00F29280F0B50AE08F
:10400000092500E0002505FA02F2A2426FD0013333
:104010000F2B00F2848001229A4002EA0106B2428C
:10402000F5D105685F000324BC40E44325400560EA
:104030004FEAD30C0CF1080C50F82CE003F0070504
:10404000AD000F2707FA05F52EEA050540F82C50BC
:10405000856825408560456825EA02024260C2689D
:104060001440C4604FEA930C0CF102042D4A52F83C
:10407000244003F00302920097403C402A4DA8429E
:10408000C0D005F58065A84221D005F58065A8421D
:104090001FD005F58065A8421DD005F58065A842B2
:1040A0001BD005F58065A84219D005F58065A842AA
:1040B00017D005F58065A84215D005F58065A842A2
:1040C00013D005F58065A8429AD00A259BE7012503
:1040D00099E7022597E7032595E7042593E705254A
:1040E00091E706258FE707258DE708258BE70D4D1E
:1040F0000CF1020255F8224024EA070745F8227025
:104100000A4C2568F24315402560656815406560D6
:10411000A5681540A560E5682A40E26077E7F0BD34
:10412000704700BF0038014000000240003C0140E1
:1041300012B909048161704781617047F8B506685A
:10414000346A04F00F07C4F34343C4F30A14022B88
:104150002ED16CB307EB8702D3000344596C39B3FB
:1041600005462246304602F0CBFEBA003A44D30060
:104170002B445A6C22445A64DA6C2244DA6406EB0B
:104180004713D3F810150B4A0A408AB1D3F800251B
:1041900022F0804242F00042C3F80025BB00D9194A
:1041A000CA002A4492F8503083F0010382F850305C
:1041B000F8BD00BF0000F81FF0B585B09DF828607D
:1041C0009DF82C70BDF830C090F89042012C2AD098
:1041D0000546012085F89002880000EB010E4FEAA9
:1041E000CE042C4484F83830A4F840C084F8391048
:1041F00084F83F7002F07F0E84F83AE04FEAD21E56
:1042000084F83BE00844C4002C4484F83C60CDF8BA
:1042100008C001970096286802F08BFF002385F8FC
:10422000903205B0F0BD0220FBE790F89032012BF0
:104230000BD010B50446012380F89032006803F0DB
:1042400032F9002084F8900210BD02207047002847
:1042500037D0F0B58BB00646032380F89132FEF7D5
:104260006DFD306802F0F5FD344654F810CB6D4614
:104270000FCC0FC50FCC0FC594E8030085E80300F1
:10428000371D97E80E00604602F09FFD012130685F
:1042900002F0E5FD344654F810CB6D460FCC0FC547
:1042A0000FCC0FC594E8030085E8030097E80E00E3
:1042B000604602F05FFE012386F8913200200BB0C9
:1042C000F0BD01207047F8B59DF81870BDF820606A
:1042D0009DF824C08D000D44EC00044484F83B207C
:1042E00084F83F306FB901EB8105EC0004440325ED
:1042F00084F84250032B00F2B380DFE803F00AAAEF
:104300003E7B01EB8105EC000444022584F8425019
:10431000F0E7012F40F0A480002A40F0A18036B9D8
:1043200001EB8102D3000344012283F8512001EB09
:104330008102D300034493F85130B3B901EB8102F9
:10434000D3000344002283F8422001EB8102D30012
:10435000034493F85C30022B00F0828001EB810271
:10436000D300034483F83DC07AE001EB8102D3001F
:104370000344022283F84220E7E722BB01EB8102DB
:10438000D300034493F85130ABB901EB8102D30061
:104390000344002283F8422001EB8102D30003444E
:1043A00093F85C30022B5BD001EB8102D300034415
:1043B00083F83DC054E001EB8102D30003440222A4
:1043C00083F84220E8E701EB8102D300034493F82D
:1043D00050303BB901EB8102D3000344002283F843
:1043E00042203DE001EB8102D3000344022283F826
:1043F000422035E0B2B901EB8102D300034493F8C7
:1044000051303BB901EB8102D3000344002283F811
:10441000422025E001EB8102D3000344022283F80D
:1044200042201DE001EB8102D300034493F8503099
:104430003BB901EB8102D3000344002283F8422000
:104440000EE001EB8102D3000344022283F84220F4
:1044500006E001EB8102D3000344002283F84220EE
:104460008A005418E3000344079C5C649E640024A3
:1044700083F85C40DC6483F8391083F85D401144B4
:10448000CB0003F13801027C0144006802F0C2FE57
:10449000F8BD30B583B005460468D4F840340193C4
:1044A000D4F840340093009B23F02E030093019B2B
:1044B00013F0020F07D0019B13F0010F25D1009BD1
:1044C00043F002030093019B13F0080F10D0009BF0
:1044D00043F008030093019B13F0040F31D0AB6944
:1044E000022B19D0EB68032B26D02846FEF766FC7A
:1044F000019B13F0200F03D0009B43F02003009397
:10450000009BC4F8403403B030BDA36923F00053CE
:10451000A361FEF753FCD2E7019B03F4C023B3F57C
:10452000802F04D00121286802F09AFDDDE70221E6
:10453000286802F095FDD8E74EF66022C4F80424FE
:10454000D3E7D4F8403423F02E03C4F840342A686B
:10455000936943F000539361CAE7F8B506460D46E8
:10456000076807EB411707F5A064A36813F0040F71
:1045700041D00423A360E36843F00203E360A3682F
:1045800013F4007F6DD1A36813F0010F00F08A804F
:10459000336963B1AB005919CA003244916C226986
:1045A000C2F31202891A2B44DA003244D164AA0001
:1045B0002A44D3003344012283F85D200021996509
:1045C000A26093F83F30002B57D0022B55D0032B1D
:1045D0005DD1D7F8003543F00053C7F8003505EB3F
:1045E0008502D3003344012283F85C2029463046FB
:1045F000FEF7F0FB4BE0A36813F0200F02D020235E
:10460000A360BCE7A36813F0080F17D1A36813F4E5
:10461000806FB4D0E36843F00203E360006802F007
:1046200042FF1023A36005EB8502D3003344082228
:1046300083F85D204FF48063A360A0E7E36843F054
:104640000203E36001EB8102D3000344052283F8F7
:104650005D201023A3600823A360006802F023FFFD
:104660008DE7E36843F00203E3602946306802F017
:104670001AFF4FF40073A36013E0E36843F00203F2
:10468000E3602946306802F00EFF1023A360AB0000
:104690005919CA00324492F8503083F0010382F86D
:1046A0005030F8BDA36813F0020F50D0E36823F038
:1046B0000203E36005EB8502D300334493F85D30D9
:1046C000012B20D0052B32D0062B01D0082B21D175
:1046D000AA002A44D30033449A6D511C9965032AD9
:1046E0002DD9AA002A44D300334400229A6504221B
:1046F00083F85C20D7F8003523F0804343F0004373
:10470000C7F8003506E005EB8502D30033440122EB
:1047100083F85C200223A36005EB8502D3003344B9
:1047200093F85C2029463046FEF754FBB9E705EBC9
:104730008502D3003344052283F85C20EAE705EBC9
:104740008502D3003344022283F85C20D2E7A368B9
:1047500013F0800F26D1A36813F0100FA1D005EB42
:104760008502D300334493F83F30032B32D0AB00A3
:104770005919CA003244032182F85D101022A26048
:104780001D4405FA01F31E4496F83F300BB1022B8D
:1047900087D1D7F8003523F0804343F00043C7F8B2
:1047A00000357EE7E36843F00203E360AB0059198C
:1047B000CA003244916D013191652B44DA003244D4
:1047C000062382F85D302946306802F06CFE8023B3
:1047D000A36066E7E36843F00203E36029463068BC
:1047E00002F061FEC3E7F8B5046804EB411404F578
:1047F000A064A36813F0040F24D10E460546A368F5
:1048000013F0200F25D02023A36001EB8102D300F9
:10481000034493F83D30012B1AD18F007A18D3004E
:104820000344042283F85D20E36843F00203E3605D
:10483000006802F038FEB919C8002844022380F845
:104840005C3005E00423A360E36843F00203E36007
:10485000F8BDA36813F0400F4CD1A36813F4007F98
:104860005FD1A36813F0010F66D1A36813F0080F9E
:1048700077D1A36813F0100F40F08480A36813F081
:10488000800F40F09580A36813F4806F40F0A18002
:10489000A36813F0020FDBD0E36823F00203E360A8
:1048A00001EB8102D300034493F85D30012B00F04B
:1048B000A480032B00F0C480042B00F0C980052BDA
:1048C00000F0D180062B02D0082B40F0A180B2006E
:1048D0003244D3002B449A6D511C9965032A40F24F
:1048E000CA80282303FB065300229A65042283F81A
:1048F0005C208DE08B005918CA000244042182F824
:104900005D103344DA00024400239365E36843F00A
:104910000203E3603146006802F0C5FD4023A36056
:1049200096E7E36843F00203E360006802F0BBFD32
:104930004FF40073A3608BE78F007A18D300034411
:1049400000229A65E36843F00203E360006802F026
:10495000AAFD0123A360B919C800284480F85D307E
:1049600076E70823A360E36843F00203E36000688E
:1049700002F099FD06EB8601C8002844052380F863
:104980005D3065E78F007A18D300034400229A65F2
:10499000E36843F00203E360006802F084FDB919A4
:1049A000C8002844032380F85D301023A3604FE73C
:1049B000E36843F00203E360006802F074FD06EB75
:1049C0008601CB002B44062283F85D208023A36060
:1049D0003EE7E36843F00203E360006802F063FD32
:1049E0001023A3604FF48063A36006EB8601CB0025
:1049F0002B44082283F85D202AE78A000A44D3006A
:104A00000344012283F85C2093F83F30022B0CD042
:104A10000223A36006EB8602D3002B4493F85C20AC
:104A200031462846FEF7D6F912E78A000A44D30039
:104A3000034493F8512082F0010283F85120E7E704
:104A400001EB8102D3000344022283F85C20DFE7FC
:104A50008A000A44D3000344022283F85C20002227
:104A600083F83D20D4E701EB8102D3000344052203
:104A700083F85C20CCE7282303FB0653022283F84B
:104A80005C20C5E7F8B504460568284602F050FAF0
:104A9000012800D0F8BD206802F046FA0028F9D0BD
:104AA000206802F041FA10F4001F03D023684FF48D
:104AB00000125A61206802F037FA10F4801F03D008
:104AC00023684FF480125A61206802F02DFA10F02A
:104AD000806F03D023684FF080625A61206802F033
:104AE00023FA10F0020F02D0236802225A612068D4
:104AF00002F01AFA10F0005F25D1206802F014FAD3
:104B000010F0807F31D1206802F00EFA10F0080F0B
:104B10002FD1206802F008FA10F0007F30D1206811
:104B200002F002FA10F0100FB4D02268936923F05B
:104B3000100393612046FFF701FB2268936943F05D
:104B400010039361A6E7D5F8403423F02E03C5F88F
:104B500040342046FEF738F90121206802F080FA3F
:104B600023684FF000525A61C7E72046FFF791FCD7
:104B7000C9E72046FEF71CF9236808225A61C8E7F6
:104B8000206802F081FC0746002604E0F1B22046CE
:104B9000FFF729FE0136A368B3420FD90123B340C2
:104BA0003B42F7D005EB4613D3F8003513F4004F22
:104BB000ECD0F1B22046FFF7D0FCEBE723684FF0D2
:104BC00000725A61ABE738B590F89032012B0ED0E5
:104BD0000446012580F89052006802F034F9294615
:104BE000206802F077FA002084F8900238BD022095
:104BF000FCE790F89032012B0BD010B5044601234E
:104C000080F89032006802F069FD002084F890027C
:104C100010BD0220704708B5006802F041FA08BDD7
:104C200001EB8101CB00184490F85C00704701EB68
:104C30008101CB001844C06C704708B5006802F0D1
:104C400073FA08BD08B5006802F065FA08BD03688C
:104C50005A6912F4806F0DD06FF480625A61042398
:104C6000036400230363202280F83D2080F83C3059
:104C70000120704700207047F8B506460C461746DD
:104C80001D461EE02DB1FEF7DBFD069BC01AA842B3
:104C900017D900233363202286F83D2086F83E3062
:104CA00086F83C3003201AE033685B6924EA03038A
:104CB0009BB2B3FA83F35B099F420FD1B5F1FF3F7B
:104CC000E0D1C4F30743012BEED033689B6924EA9B
:104CD00003039BB2B3FA83F35B09EDE70020F8BD51
:104CE000F8B504460D4616461F4632E01A6842F4EF
:104CF00000721A6023686FF480625A61042323648F
:104D000000232363202284F83D2084F83C300120D6
:104D10002DE026B1FEF794FDC01BB04219D9002347
:104D20002363202284F83D2084F83C3003201EE0D9
:104D300023685B6925EA03039BB2003318BF012394
:104D4000A3B123685A6912F4806FCFD1B6F1FF3F47
:104D5000DFD1C5F30743012BEAD023689B6925EA1D
:104D600003039BB2003318BF0123E9E70020F8BD1D
:104D700070B504460D46164623685B6913F0800F34
:104D800019D12046FFF763FFB8B9B5F1FF3FF3D063
:104D900025B1FEF755FD801BA842EDD9236C43F0E9
:104DA0002003236400232363202284F83D2084F819
:104DB0003C30032000E0002070BD0120FCE7000033
:104DC0002DE9F04184B004460E46174698460B9DE7
:104DD0000268136843F48073136000950A9B0022F5
:104DE0004FF00111FFF748FF002847D1236806F074
:104DF000FE061E612B460A9A26492046FFF770FFE1
:104E000020B1236C042B3ED1012338E0002303930F
:104E100023685A6903929B690393039B2A460A9964
:104E20002046FFF7A5FF034648B1236C042B2CD185
:104E30002268136843F40073136001231FE0B8F184
:104E4000010F13D023683A0A1A612A460A992046AC
:104E5000FFF78EFF034668B1236C042B17D122683D
:104E6000136843F400731360012308E02268FFB263
:104E7000176104E02268FFB2176100E003231846BF
:104E800004B0BDE8F0810323F9E70323F7E7032328
:104E9000F5E700BF020001002DE9F04184B00446AF
:104EA0000E46174698460B9D0268136843F48063CC
:104EB00013600268136843F48073136000950A9BC3
:104EC00000224FF00111FFF7D7FE002874D1F6B28F
:104ED000236806F0FE021A612B460A9A3F492046D3
:104EE000FFF7FEFE20B1236C042B6AD1012364E09E
:104EF0000023039323685A6903929B690393039BDE
:104F00002A460A992046FFF733FF48B1236C042B49
:104F100059D12268136843F40073136001234CE0F5
:104F2000B8F1010F12D12368FFB21F612A460A9916
:104F30002046FFF71DFF00B3236C042B47D12268E6
:104F4000136843F400731360012336E023683A0AC0
:104F50001A612A460A992046FFF70AFF48B1236CD6
:104F6000042B32D12268136843F4007313600123C9
:104F700023E02368FFB21F61D8E72268136843F477
:104F80008073136000950A9B00224FF001112046A8
:104F9000FFF772FEE8B9236846F001061E612B4652
:104FA0000A9A0E492046FFF79BFE034628B1236C60
:104FB000042B10D1012300E00323184604B0BDE800
:104FC000F0810323F9E70323F7E70323F5E703233E
:104FD000F3E70323F1E70323EFE700BF020001003B
:104FE00070B504460D46164623685B6913F0040F3E
:104FF00019D12046FFF72BFEB8B9B5F1FF3FF3D02A
:1050000025B1FEF71DFC801BA842EDD9236C43F0AF
:105010002003236400232363202284F83D2084F8A6
:105020003C30032000E0002070BD0120FCE770B59B
:1050300005460C4616462B685A6912F0400F22D1DD
:105040005A6912F0100F11D124B1FEF7F9FB801B41
:10505000A042F0D92B6C43F020032B64202385F869
:105060003D30002385F83C30032070BD6FF0100206
:105070005A6100232B642B63202285F83D2085F89C
:105080003C300120F1E70020EFE70000002800F0AD
:10509000828010B5044690F83D30002B41D0242387
:1050A00084F83D302268136823F00103136001F097
:1050B0005BF83A4BA3FB00239B0C226853606168AA
:1050C000374A914232D80133226813626368344A06
:1050D000934235D85B00B0FBF3F0C0F30B03032B16
:1050E00000D804202368D861E369216A22680B4351
:1050F00013602369E16822680B4393606369A169C7
:1051000022680B43D3602268136843F001031360E5
:1051100000202064202384F83D30206384F83E0082
:1051200010BD80F83C30FBF797FCB8E74FF496725F
:1051300002FB03F31B4AA2FB03239B090133C3E7D2
:10514000A16889B903EB4302B0FBF2F2C2F30B0290
:10515000B2FA82F25209E2B991B903EB4303B0FB10
:10516000F3F040F40040BDE703EB830202EB820260
:10517000B0FBF2F2C2F30B02B2FA82F25209EAE792
:1051800003EB830303EB8303B0FBF3F040F44040F5
:10519000A8E70120A6E70120704700BF83DE1B437C
:1051A000A0860100D34D6210A8B110B50446242397
:1051B00080F83D300268136823F001031360FBF7A9
:1051C0009FFC0020206484F83D00206384F83E00AA
:1051D00084F83C0010BD0120704700002DE9F0412B
:1051E00082B004460E4617469846FEF729FB94F80F
:1051F0003D30DBB2202B04D00223184602B0BDE8BC
:10520000F081054600901923012251492046FFF7FD
:1052100033FD002840F0938094F83C30012B00F0DF
:105220009080012384F83C3023681A6812F0010F43
:1052300003D11A6842F001021A602268136823F44D
:1052400000631360212384F83D30402384F83E300E
:1052500000232364089B6362BDF8243063853D4BC3
:10526000E362638D238501950A9B009343463A468A
:1052700031462046FFF7A4FDB0B1236C042B04D1C6
:10528000002384F83C300123B7E7002384F83C3046
:105290000323B2E7236C042B55D12268136843F42F
:1052A000007313600123A8E7238D002B28D02A4622
:1052B0000A992046FFF75CFD0028EBD1636A5A1C6F
:1052C000626222681B781361238D013B9BB22385A8
:1052D000628D013A92B262852268516911F0040F21
:1052E000E2D0002BE0D0636A591C61621B78136125
:1052F000238D013B2385638D013B9BB26385D3E7FF
:105300002A460A992046FFF76BFE034648B1236CF4
:10531000042B1AD12268136843F40073136001232D
:105320006BE721680A6842F400720A60202284F860
:105330003D20002284F83E2084F83C205DE70223D3
:105340005BE7022359E7032357E7032355E700BF31
:10535000020010000000FFFF2DE9F04186B0044676
:105360000E4617469846FEF76BFA94F83D30DBB2CE
:10537000202B04D00226304606B0BDE8F081054659
:105380000090192301228B492046FFF775FC002865
:1053900040F04B8194F83C30012B00F04881012310
:1053A00084F83C3023681A6812F0010F03D11A68A0
:1053B00042F001021A602268136823F4006313604C
:1053C000222384F83D30402384F83E3000232364B8
:1053D0000C9B6362BDF834306385774BE362638D69
:1053E000238501950E9B009343463A46314620465D
:1053F000FFF752FD064660B1236C042B04D1002355
:1054000084F83C300126B6E7002384F83C300326BC
:10541000B1E7238D5BB9029323685A6902929A69B6
:105420000292029A1A6842F400721A6075E0012B27
:105430000AD0022B1AD00023059323685A690592DB
:105440009B690593059B68E02268136823F48063D9
:1054500013600023039323685A6903929A690392A5
:10546000039A1A6842F400721A6056E022681368C0
:1054700023F4806313602268136843F400631360AD
:105480000023049323685A6904929B690493049B44
:1054900043E02A460E992046FFF7C9FD68B9236804
:1054A0001A69636A591C61621A70238D013B238556
:1054B000638D013B9BB263852FE0236C202B01D0D1
:1054C000012658E7032656E700950E9B00223B492C
:1054D0002046FFF7D1FB002840F0AB80226813681C
:1054E00043F40073136023681A69636A591C61628C
:1054F0001A70238D013B2385638D013B9BB263852D
:1055000023681A69636A591C61621A70238D013B12
:105510002385638D013B9BB26385238D002B7BD05C
:10552000032B4DD8012BB4D0022BCDD000950E9B70
:10553000002222492046FFF79FFB00287BD12268EA
:10554000136823F48063136023681A69636A591C23
:1055500061621A70238D013B2385638D013B9BB2F1
:10556000638500950E9B002214492046FFF784FBBB
:10557000002862D12268136843F400731360236823
:105580001A69636A591C61621A70238D013B238575
:10559000638D013B9BB2638523681A69636A591C5A
:1055A00061621A70238D013B2385638D013B9BB2A1
:1055B0006385B2E7020010000000FFFF0400010055
:1055C0002A460E992046FFF732FDF0B923681A6982
:1055D000636A591C61621A70238D013B2385638DB8
:1055E000013B9BB2638523685A6912F0040F94D083
:1055F0001A69636A591C61621A70238D013B238505
:10560000638D013B9BB2638587E7236C202B01D020
:105610000126B0E60326AEE6202384F83D300023C1
:1056200084F83E3084F83C30A5E60226A3E6022644
:10563000A1E603269FE603269DE603269BE600BF20
:1056400090F83D00704790F83D30DBB2202B1AD126
:10565000242380F83D300268136823F001031360AF
:105660000268536A23F0100353620268536A1943B5
:1056700051620268136843F001031360202380F82D
:105680003D30002070470220704790F83D30DBB27B
:10569000202B19D1242380F83D300268136823F0B1
:1056A000010313600268536A9BB223F00F0319438E
:1056B00089B251620268136843F00103136020232A
:1056C00080F83D300020704702207047F0B44D68EC
:1056D0000468E368C3F30B431D44D2011444D4F8B7
:1056E000883003F47043C4F888300B680468E668B7
:1056F000C6F30B4633440133144443EA0543C4F86C
:105700008830CD680468E368C3F30A031D44144479
:10571000D4F88C3003F47043C4F88C308B68046880
:10572000E668C6F30A0633440133144443EA0543EA
:10573000C4F88C3003681344D3F8944024F0070471
:10574000C3F89440036813440C69C3F8944091F87B
:1057500031C091F832708E6905681544D5F89C30D7
:105760000024C5F89C4091F8303043EA0C2343EA0A
:1057700007430568154443EA0663C5F89C3003688F
:105780001344D3F8985025F0FF05C3F898500368E8
:1057900013444D69C3F8985003681344D3F8A050DC
:1057A00025F4E06525F00705C3F8A050CD690E6A21
:1057B000036813443543C3F8A05003681344D3F877
:1057C000AC50C3F8AC40036813444C6AC3F8AC4017
:1057D0000B696BB1012B3CD0042B3CD0022B08D0C1
:1057E000032B3AD0072B01D0012302E0022300E073
:1057F000042304681444D4F8B05005F0E025C4F83C
:10580000B0508C6A03FB04F54C680E68A41B03FBC4
:1058100004F303330468144443EA0543C4F8B03086
:1058200003681344D3F8B44024F4FF6424F007045D
:10583000C3F8B44003681344C96AC3F8B4100368DA
:105840001A44D2F8843043F00103C2F88430F0BC2B
:1058500070470323CDE70223CBE70223C9E700000B
:10586000002872D038B5044690F8A130002B67D0DC
:10587000022384F8A1302268936923F07043936176
:1058800021688A696368A0680343E068034320696C
:10589000034313438B6121688A682D4B1A408A6049
:1058A000656920688268A16941EA05410A4382600E
:1058B0002168CA681A40CA60E5692068C268216A1E
:1058C00041EA05410A43C26021680A691A400A6137
:1058D000656A20680269A16A41EA05410A430261DA
:1058E00021684A6913404B61E06A21684B69226B69
:1058F00042EA004213434B6194F8350094F8363085
:105900001B042168CA6A02F07F42CA622168CA6A1F
:1059100043EA002394F8340003431343CB62226824
:10592000536B43F0060353632268936943F001030A
:1059300093610020C4F8A400012384F8A13038BD8D
:1059400080F8A030FCF718FA92E70120704700BFFA
:1059500000F800F010B50446FCF79AFA0020C4F8ED
:10596000A40084F8A10084F8A00010BD704770471F
:1059700070B5044603689D6B5E6B15F0040F02D092
:1059800016F0040F12D115F0020F02D016F0020F1C
:1059900021D115F0010F02D016F0010F32D115F010
:1059A000080F02D016F0080F3DD170BD5A6B22F0DF
:1059B00004025A6303680422DA63D0F8A43043F087
:1059C0000103C0F8A43080F8A120002380F8A030A3
:1059D000FFF7CCFFD7E72268536B23F00203536332
:1059E00023680222DA63D4F8A4301343C4F8A43045
:1059F000042384F8A130002384F8A0302046FFF768
:105A0000B5FFC6E72268536B23F001035363226896
:105A10000123D36384F8A130002384F8A03020460A
:105A2000FCF7DAFDBBE72268536B23F008035363EE
:105A300023680822DA63012384F8A130002384F864
:105A4000A0302046FFF793FFAFE790F8A030012B7E
:105A500027D02DE9F04194460F4606464FF0010845
:105A600080F8A080022380F8A130342404FB0204D3
:105A700038340D460FCD0FC40FCD0FC40FCD0FC45A
:105A80002B682360624639463046FFF71FFE3368B5
:105A9000C3F8248086F8A180002086F8A000BDE825
:105AA000F08102207047000010B490F8A040012C53
:105AB00047D0012380F8A030022380F8A13034249D
:105AC00004FB0204A36C6BB1012B34D0042B34D043
:105AD000022B08D0032B32D0072B01D0012302E088
